S011000041726475696E6F4F532E737265639F
S113000072C000009EC000009CC000009AC00000A6
S113001098C0000096C0000094C0000092C0000088
S113002090C000008EC000008CC000008AC0000098
S113003088C0000086C0000084C0000082C00000A8
S113004080C000007EC000007CC000007AC00000B8
S113005078C0000076C0000074C0000072C00000C8
S113006070C000006EC000006CC000006AC00000D8
S113007068C0000066C0000064C0000062C00000E8
S113008060C000005EC000005CC000005AC00000F8
S113009058C0000056C0000054C0000052C0000008
S11300A050C000004EC000004CC000004AC0000018
S11300B048C000006CC3000044C0000042C00000FF
S11300C040C000003EC000003CC000003AC0000038
S11300D038C0000036C0000034C0000032C0000048
S11300E030C000002E0411241FBECFEFD1E2DEBFCA
S11300F0CDBF00E00CBF12E0A0E0B2E0E8E5FBE019
S113010000E00BBF02C007900D92A430B107D9F7ED
S113011022E0A4E0B2E001C01D92AC3CB207E1F7DA
S113012010E0C3E7D0E000E005C021970109802F6B
S1130130FE0108D5C237D10780E00807B1F785D39F
S113014009C55ECF2E9A2FE784E89EE121508040B6
S11301509040E1F700C000002E982FE784E89EE16C
S1130160215080409040E1F700C0000008952D9890
S11301702FE784E89EE1215080409040E1F700C0E1
S113018000002D9A2FE784E89EE1215080409040A2
S1130190E1F700C000000895F894279A269A259A5A
S11301A0E1EAF0E0808181608083E2E7F0E0808131
S11301B08160808378940895F894809100029091EE
S11301C001028130910509F0A4C0E4E6F2E0A081C7
S11301D0B1818C918283A381B4818C918583A68122
S11301E0B7818C918087A185B2858C918387A48502
S11301F0B5858C918687A785B0898C91818BA289DE
S1130200B3898C91848BA589B6898C91878BA08DB9
S1130210B18D8C91828FA38DB48D8C91858FA68D99
S1130220B78D8C9180A3A1A1B2A18C9183A3A4A129
S1130230B5A18C9186A3A7A1B0A58C9181A7A2A5F5
S1130240B3A58C9184A7A5A5B6A58C9187A7A0A9D1
S1130250B1A98C9182ABA3A9B4A98C9185ABA6A9B1
S1130260B7A98C9180AFA1ADB2AD8C9183AFA4AD91
S1130270B5AD8C9186AFE091A302F091A402808188
S11302808093A502E091A602F091A7028081809359
S1130290A802E091A902F091AA0280818093AB02A6
S11302A0E091AC02F091AD0280818093AE02E091C6
S11302B0AF02F091B00280818093B102E091B2026A
S11302C0F091B30280818093B402E091B502F09181
S11302D0B60280818093B702E091B802F091B9022E
S11302E080818093BA02E091BB02F091BC028081CC
S11302F08093BD02E091BE02F091BF0280818093A1
S1130300C002E091C102F091C20280818093C302D5
S1130310A6C0029709F0A3C0E4E0F2E0A081B18195
S11303208C918283A381B4818C918583A681B781CA
S11303308C918087A185B2858C918387A485B585AE
S11303408C918687A785B0898C91818BA289B3898A
S11303508C91848BA589B6898C91878BA08DB18D66
S11303608C91828FA38DB48D8C91858FA68DB78D42
S11303708C9180A3A1A1B2A18C9183A3A4A1B5A1C6
S11303808C9186A3A7A1B0A58C9181A7A2A5B3A5A2
S11303908C9184A7A5A5B6A58C9187A7A0A9B1A97E
S11303A08C9182ABA3A9B4A98C9185ABA6A9B7A95A
S11303B08C9180AFA1ADB2AD8C9183AFA4ADB5AD3E
S11303C08C9186AFE0914302F09144028081809346
S11303D04502E0914602F0914702808180934802F1
S11303E0E0914902F0914A02808180934B02E091AE
S11303F04C02F0914D02808180934E02E0914F02B5
S1130400F0915002808180935102E0915202F09168
S11304105302808180935402E0915502F091560278
S1130420808180935702E0915802F09159028081B3
S113043080935A02E0915B02F0915C028081809388
S11304405D02E0915E02F0915F0280818093600220
S1130450E0916102F091620280818093630278945A
S11304600895F894809100029091010281309105E1
S113047009F0A4C0E4E6F2E0A081B18182818C930A
S1130480A381B48185818C93A681B78180858C9367
S1130490A185B28583858C93A485B58586858C9347
S11304A0A785B08981898C93A289B38984898C9327
S11304B0A589B68987898C93A08DB18D828D8C9303
S11304C0A38DB48D858D8C93A68DB78D80A18C93CF
S11304D0A1A1B2A183A18C93A4A1B5A186A18C935F
S11304E0A7A1B0A581A58C93A2A5B3A584A58C933F
S11304F0A5A5B6A587A58C93A0A9B1A982A98C931B
S1130500A3A9B4A985A98C93A6A9B7A980AD8C93F6
S1130510A1ADB2AD83AD8C93A4ADB5AD86AD8C93D6
S1130520E091A302F091A4028091A5028083E0915E
S1130530A602F091A7028091A8028083E091A9020B
S1130540F091AA028091AB028083E091AC02F09119
S1130550AD028091AE028083E091AF02F091B002CF
S11305608091B1028083E091B202F091B302809154
S1130570B4028083E091B502F091B6028091B70293
S11305808083E091B802F091B9028091BA0280832D
S1130590E091BB02F091BC028091BD028083E091A6
S11305A0BE02F091BF028091C0028083E091C1023B
S11305B0F091C2028091C3028083A6C0029709F021
S11305C0A3C0E4E0F2E0A081B18182818C93A38195
S11305D0B48185818C93A681B78180858C93A18514
S11305E0B28583858C93A485B58586858C93A785F0
S11305F0B08981898C93A289B38984898C93A589D4
S1130600B68987898C93A08DB18D828D8C93A38DAF
S1130610B48D858D8C93A68DB78D80A18C93A1A16B
S1130620B2A183A18C93A4A1B5A186A18C93A7A107
S1130630B0A581A58C93A2A5B3A584A58C93A5A5EB
S1130640B6A587A58C93A0A9B1A982A98C93A3A9C7
S1130650B4A985A98C93A6A9B7A980AD8C93A1ADA3
S1130660B2AD83AD8C93A4ADB5AD86AD8C93E09162
S11306704302F0914402809145028083E091460256
S1130680F0914702809148028083E0914902F09101
S11306904A0280914B028083E0914C02F0914D021A
S11306A080914E028083E0914F02F091500280913C
S11306B051028083E0915202F091530280915402DE
S11306C08083E0915502F091560280915702808315
S11306D0E0915802F091590280915A028083E0918E
S11306E05B02F0915C0280915D028083E0915E0286
S11306F0F0915F02809160028083E0916102F09149
S1130700620280916302808378940895F894209122
S11307100202309103022130310559F49093C90249
S11307208093C80282E090E09093030280930202D7
S11307300BC02230310541F49093CB028093CA025E
S1130740109203021092020278940895809100029C
S1130750909101028130910561F4E091C802F09119
S1130760C902199582E090E09093010280930002FF
S11307700895029759F4E091CA02F091CB021995B9
S113078081E090E0909301028093000208951F920B
S11307900F920FB60F9211240BB60F922F933F9323
S11307A04F935F936F937F938F939F93AF93BF9375
S11307B0EF93FF93F8948091C4029091C5028A301C
S11307C0910551F51092C5021092C4028091000265
S11307D090910102009749F4EFDC81E090E090935E
S11307E00102809300023DDE1CC08130910549F472
S11307F0E3DC82E090E0909301028093000231DE1A
S113080010C0029771F4D8DC81E090E0909301026B
S11308108093000226DE05C001969093C502809362
S1130820C4027894FF91EF91BF91AF919F918F9102
S11308307F916F915F914F913F912F910F900BBEDC
S11308400F900FBE0F901F901895A6DC82EA90E0DF
S11308505DDF87EB90E05ADF79DFFECF2F923F9286
S11308604F925F926F927F928F929F92AF92BF92BC
S1130870CF92DF92EF92FF920F931F93CF93DF9368
S1130880E4E6F2E011821082CC24C394D12CD48209
S1130890C3826894882481F8912C978286820F2ED3
S11308A0F3E06F2E712CF02D7286618668942224F9
S11308B022F8312C3586248685E090E0908B87875A
S11308C086E090E0938B828B87E090E0968B858B1B
S11308D088E090E0918F808F89E090E0948F838FFF
S11308E08AE090E0978F868F8BE090E092A381A3BB
S11308F08CE090E095A384A38DE090E090A787A37B
S11309008EE090E093A782A78FE090E096A785A75A
S113091080E190E091AB80AB81E190E094AB83AB5C
S113092082E190E097AB86AB83E190E092AF81AF38
S113093084E190E095AF84AFE5E1F0E0F093A402A8
S1130940E093A3020F2EF6E14F2E512CF02D50927E
S1130950A7024092A6020F2EF7E1AF2EB12CF02D84
S1130960B092AA02A092A9020F2EF8E1EF2EF12C68
S1130970F02DF092AD02E092AC0209E110E0109388
S1130980B0020093AF02CAE1D0E0D093B302C093A7
S1130990B202ABE1B0E0B093B602A093B5026CE151
S11309A070E07093B9026093B8024DE150E0509347
S11309B0BC024093BB022EE130E03093BF0220938F
S11309C0BE028FE190E09093C2028093C102E4E002
S11309D0F2E011821082D482C38297828682728668
S11309E06186358624860F2EF5E0CF2ED12CF02D8E
S11309F0D08AC7860F2EF6E0CF2ED12CF02DD38AC5
S1130A00C28A0F2EF7E0CF2ED12CF02DD68AC58ABC
S1130A106894CC24C3F8D12CD18EC08E0F2EF9E06B
S1130A20CF2ED12CF02DD48EC38E0F2EFAE0CF2EE4
S1130A30D12CF02DD78EC68E0F2EFBE0CF2ED12CCD
S1130A40F02DD2A2C1A20F2EFCE0CF2ED12CF02D7E
S1130A50D5A2C4A20F2EFDE0CF2ED12CF02DD0A60E
S1130A60C7A20F2EFEE0CF2ED12CF02DD3A6C2A606
S1130A700F2EFFE0CF2ED12CF02DD6A6C5A668945C
S1130A80CC24C4F8D12CD1AAC0AA0F2EF1E1CF2EC8
S1130A90D12CF02DD4AAC3AA0F2EF2E1CF2ED12C43
S1130AA0F02DD7AAC6AA0F2EF3E1CF2ED12CF02D0C
S1130AB0D2AEC1AE0F2EF4E1CF2ED12CF02DD5AE97
S1130AC0C4AEE5E1F0E0F0934402E09343025092B7
S1130AD0470240924602B0924A02A0924902F09222
S1130AE04D02E0924C021093500200934F02D093B7
S1130AF05302C0935202B0935602A09355027093CE
S1130B0059026093580250935C0240935B02309305
S1130B105F0220935E029093620280936102DF91F0
S1130B20CF911F910F91FF90EF90DF90CF90BF90E6
S1130B30AF909F908F907F906F905F904F903F9079
S1130B402F900895EE0FFF1F881F8BBF0790F6911B
S10B0B50E02D1994F894FFCF85
S1070B580100010093
S9030000FC
