:1000000071C000008EC000008CC000008AC00000DB
:1000100088C0000086C0000084C0000082C00000CC
:1000200080C000007EC000007CC000007AC00000DC
:1000300078C0000076C0000074C0000072C00000EC
:1000400070C000006EC000006CC000006AC00000FC
:1000500068C0000066C0000064C0000062C000000C
:1000600060C00000C0C00000F0C000005AC0000026
:1000700058C0000056C0000054C0000052C000002C
:1000800050C000004EC000004CC000004AC000003C
:1000900056C1000086C1000044C0000042C00000FC
:1000A00040C000003EC000003CC000003AC000005C
:1000B00038C000005DC0000034C0000032C0000045
:1000C00030C000002EC000002CC000002AC000007C
:1000D00028C0000026C0000024C0000022C000008C
:1000E00020C0000011241FBECFEFD1E2DEBFCDBF84
:1000F00000E00CBF12E0A0E0B2E0E6E4F4E000E0D3
:100100000BBF02C007900D92A430B107D9F722E0CF
:10011000A4E0B2E001C01D92A539B207E1F787D192
:1001200090C16ECF2F980895F894279A78940895E7
:10013000F894E1EAF0E0808181608083E2E7F0E01A
:1001400080818160808378940895809190028111EC
:1001500008C0709392026093910281E080939002B4
:100160000895709394026093930210929002089500
:100170001F920F920FB60F9211240BB60F922F936E
:100180008F939F93EF93FF9380918E0290918F02B4
:100190008A309105B9F410928F0210928E02E1EA32
:1001A000F0E080818E7F80832F9A2FE78AE196E0AE
:1001B000215080409040E1F700C0000080818160C4
:1001C000808305C0019690938F0280938E02FF91E9
:1001D000EF919F918F912F910F900BBE0F900FBEBB
:1001E0000F901F9018951F920F920FB60F92112427
:1001F0000BB60F922F938F939F93EF93FF93809162
:10020000C0002091C6008C71E0914B02EF5FEF714E
:1002100090914A02E91739F0E0934B02F0E0E25B7B
:10022000FD4F208301C082E090914902892B809389
:100230004902FF91EF919F918F912F910F900BBEEB
:100240000F900FBE0F901F9018951F920F920FB630
:100250000F9211240BB60F928F939F93EF93FF93FE
:1002600090914D0280914C02981769F0E0914C02F8
:10027000EF5FEF71E0934C02F0E0E259FD4F8081B7
:100280008093C60005C0E1ECF0E080818F7D808323
:10029000FF91EF919F918F910F900BBE0F900FBE2A
:1002A0000F901F90189510924D0210924C021092D0
:1002B0004B0210924A0299231CF422E02093C000C2
:1002C00090789093C5008093C40088E98093C10022
:1002D00086E08093C200089590914B0280914A027B
:1002E0009817A9F090914A029F5F9F71E92FF0E063
:1002F000E25BFD4F20818091490290934A02109267
:10030000490290E0982F8827820F911D089580E080
:1003100091E0089520914D022F5F2F7190914C0232
:100320002917E1F3E22FF0E0E259FD4F808320939B
:100330004D02E1ECF0E080818062808308951F929D
:100340000F920FB60F9211240BB60F922F938F932B
:100350009F93EF93FF938091C8002091CE008C7102
:10036000E0910602EF5FEF7190910502E91739F015
:10037000E0930602F0E0E75FFD4F208301C082E0DA
:1003800090910402892B80930402FF91EF919F9139
:100390008F912F910F900BBE0F900FBE0F901F905B
:1003A00018951F920F920FB60F9211240BB60F9251
:1003B0008F939F93EF93FF93909108028091070290
:1003C000981769F0E0910702EF5FEF71E093070281
:1003D000F0E0E75DFD4F80818093CE0005C0E9EC41
:1003E000F0E080818F7D8083FF91EF919F918F91CD
:1003F0000F900BBE0F900FBE0F901F90189580911D
:100400000102909102024FDF67DF8091000282DFDC
:10041000809100028F5F809300022FE38DE093E0D4
:10042000215080409040E1F700C00000089580DE38
:100430007BDE80E885B962E970E081E086DEDFDF9F
:06044000FECFF894FFCF8F
:0404460028009600F4
:00000001FF
