S011000041726475696E6F4F532E737265639F
S113000071C0000081C000007FC000007DC00000FE
S11300107BC0000079C0000077C0000075C00000FC
S113002073C0000071C000006FC000006DC000000C
S11300306BC0000069C0000067C0000065C000001C
S113004063C0000061C000005FC000005DC000002C
S11300505BC0000059C0000057C0000055C000003C
S113006053C0000051C000004FC000004DC000004C
S11300704BC0000049C0000047C0000045C000005C
S113008043C0000041C000003FC000003DC000006C
S11300903BC0000039C0000037C0000035C000007C
S11300A033C0000031C000002FC000002DC000008C
S11300B02BC0000037C0000027C0000025C000008E
S11300C023C0000021C000001FC000001DC00000AC
S11300D01BC0000019C0000017C0000015C00000BC
S11300E013C0000011241FBECFEFD1E2DEBFCDBF8D
S11300F000E00CBF22E0A0E0B2E001C01D92A230FB
S1130100B207E1F702D038C07BCF7894E1EAF0E09F
S1130110808181608083E2E7F0E080818160808378
S1130120279AFFCF1F920F920FB60F9211242F938D
S11301308F939F9381E090E090930102809300025B
S11301402F9A2FE784E89EE1215080409040E1F708
S113015000C000002F982FE784E89EE121508040E2
S11301609040E1F700C000009F918F912F910F9074
S10F01700FBE0F901F901895F894FFCF5D
S9030000FC
