:1000000071C0000079C0000077C0000075C000001A
:1000100073C0000071C000006FC000006DC0000020
:100020006BC0000069C0000067C0000065C0000030
:1000300063C0000061C000005FC000005DC0000040
:100040005BC0000059C0000057C0000055C0000050
:1000500053C0000051C000004FC000004DC0000060
:100060004BC0000049C0000047C0000045C0000070
:1000700043C0000041C000003FC000003DC0000080
:100080003BC0000039C0000037C0000035C0000090
:1000900033C0000031C000002FC000002DC00000A0
:1000A0002BC0000029C0000027C0000025C00000B0
:1000B00023C000004FC000001FC000001DC0000092
:1000C0001BC0000019C0000017C0000015C00000D0
:1000D00013C0000011C000000FC000000DC00000E0
:1000E0000BC0000011241FBECFEFD1E2DEBFCDBF99
:1000F00000E00CBF60D064C083CFF894E1EAF0E088
:10010000808181608083E2E7F0E08081816080838C
:10011000279A7894089580E885B92FE784E89EE1CE
:10012000215080409040E1F700C0000015B82FE753
:1001300084E89EE1215080409040E1F700C000003B
:100140000895F894E8DF7894E1EAF0E08081816036
:10015000808308951F920F920FB60F9211240BB651
:100160000F922F938F939F93EF93FF93E1EAF0E029
:1001700080818E7F80832F9A2FE78AE196E021503D
:1001800080409040E1F700C000002F982FE78AE1FF
:1001900096E0215080409040E1F700C00000FF91C0
:1001A000EF919F918F912F910F900BBE0F900FBEEB
:1001B0000F901F901895A1DF80E885B9C2DFFECFB0
:0401C000F894FFCFE1
:00000001FF
